{
  "_format": "hh-sol-artifact-1",
  "contractName": "Alexa4Musicians_721",
  "sourceName": "contracts/Alexa4Musicians_721.sol",
  "abi": [
    {
      "anonymous": false,
      "inputs": [
        {
          "indexed": true,
          "internalType": "address",
          "name": "owner",
          "type": "address"
        },
        {
          "indexed": true,
          "internalType": "address",
          "name": "approved",
          "type": "address"
        },
        {
          "indexed": true,
          "internalType": "uint256",
          "name": "tokenId",
          "type": "uint256"
        }
      ],
      "name": "Approval",
      "type": "event"
    },
    {
      "anonymous": false,
      "inputs": [
        {
          "indexed": true,
          "internalType": "address",
          "name": "owner",
          "type": "address"
        },
        {
          "indexed": true,
          "internalType": "address",
          "name": "operator",
          "type": "address"
        },
        {
          "indexed": false,
          "internalType": "bool",
          "name": "approved",
          "type": "bool"
        }
      ],
      "name": "ApprovalForAll",
      "type": "event"
    },
    {
      "anonymous": false,
      "inputs": [
        {
          "indexed": true,
          "internalType": "address",
          "name": "previousOwner",
          "type": "address"
        },
        {
          "indexed": true,
          "internalType": "address",
          "name": "newOwner",
          "type": "address"
        }
      ],
      "name": "OwnershipTransferred",
      "type": "event"
    },
    {
      "anonymous": false,
      "inputs": [
        {
          "indexed": true,
          "internalType": "address",
          "name": "from",
          "type": "address"
        },
        {
          "indexed": true,
          "internalType": "address",
          "name": "to",
          "type": "address"
        },
        {
          "indexed": true,
          "internalType": "uint256",
          "name": "tokenId",
          "type": "uint256"
        }
      ],
      "name": "Transfer",
      "type": "event"
    },
    {
      "inputs": [
        {
          "internalType": "address",
          "name": "to",
          "type": "address"
        },
        {
          "internalType": "uint256",
          "name": "tokenId",
          "type": "uint256"
        }
      ],
      "name": "approve",
      "outputs": [],
      "stateMutability": "nonpayable",
      "type": "function"
    },
    {
      "inputs": [
        {
          "internalType": "address",
          "name": "owner",
          "type": "address"
        }
      ],
      "name": "balanceOf",
      "outputs": [
        {
          "internalType": "uint256",
          "name": "",
          "type": "uint256"
        }
      ],
      "stateMutability": "view",
      "type": "function"
    },
    {
      "inputs": [
        {
          "internalType": "uint256",
          "name": "tokenId",
          "type": "uint256"
        }
      ],
      "name": "getApproved",
      "outputs": [
        {
          "internalType": "address",
          "name": "",
          "type": "address"
        }
      ],
      "stateMutability": "view",
      "type": "function"
    },
    {
      "inputs": [
        {
          "internalType": "string",
          "name": "skillId",
          "type": "string"
        }
      ],
      "name": "getArtistsData",
      "outputs": [
        {
          "components": [
            {
              "internalType": "address",
              "name": "owner",
              "type": "address"
            },
            {
              "internalType": "uint256",
              "name": "id",
              "type": "uint256"
            },
            {
              "internalType": "string",
              "name": "skillId",
              "type": "string"
            }
          ],
          "internalType": "struct Alexa4Musicians_721.Artist",
          "name": "artist",
          "type": "tuple"
        }
      ],
      "stateMutability": "view",
      "type": "function"
    },
    {
      "inputs": [],
      "name": "getBalance",
      "outputs": [
        {
          "internalType": "uint256",
          "name": "",
          "type": "uint256"
        }
      ],
      "stateMutability": "view",
      "type": "function"
    },
    {
      "inputs": [],
      "name": "getLatestPrice",
      "outputs": [
        {
          "internalType": "uint256",
          "name": "",
          "type": "uint256"
        }
      ],
      "stateMutability": "view",
      "type": "function"
    },
    {
      "inputs": [],
      "name": "getLatestPrice_TestNet",
      "outputs": [
        {
          "internalType": "uint256",
          "name": "",
          "type": "uint256"
        }
      ],
      "stateMutability": "view",
      "type": "function"
    },
    {
      "inputs": [
        {
          "internalType": "bool",
          "name": "_test_env",
          "type": "bool"
        }
      ],
      "name": "getMaticFee",
      "outputs": [
        {
          "internalType": "uint256",
          "name": "",
          "type": "uint256"
        }
      ],
      "stateMutability": "view",
      "type": "function"
    },
    {
      "inputs": [],
      "name": "getMintingFee",
      "outputs": [
        {
          "internalType": "uint256",
          "name": "",
          "type": "uint256"
        }
      ],
      "stateMutability": "view",
      "type": "function"
    },
    {
      "inputs": [],
      "name": "getOwnerAddress",
      "outputs": [
        {
          "internalType": "address",
          "name": "",
          "type": "address"
        }
      ],
      "stateMutability": "view",
      "type": "function"
    },
    {
      "inputs": [],
      "name": "getPriceFeedContractAddress",
      "outputs": [
        {
          "internalType": "address",
          "name": "",
          "type": "address"
        }
      ],
      "stateMutability": "view",
      "type": "function"
    },
    {
      "inputs": [],
      "name": "initialize",
      "outputs": [],
      "stateMutability": "nonpayable",
      "type": "function"
    },
    {
      "inputs": [
        {
          "internalType": "address",
          "name": "owner",
          "type": "address"
        },
        {
          "internalType": "address",
          "name": "operator",
          "type": "address"
        }
      ],
      "name": "isApprovedForAll",
      "outputs": [
        {
          "internalType": "bool",
          "name": "",
          "type": "bool"
        }
      ],
      "stateMutability": "view",
      "type": "function"
    },
    {
      "inputs": [
        {
          "internalType": "string",
          "name": "skillId",
          "type": "string"
        }
      ],
      "name": "isSkillMinted",
      "outputs": [
        {
          "internalType": "bool",
          "name": "",
          "type": "bool"
        }
      ],
      "stateMutability": "view",
      "type": "function"
    },
    {
      "inputs": [
        {
          "internalType": "string",
          "name": "tokenURI",
          "type": "string"
        },
        {
          "internalType": "string",
          "name": "skillId",
          "type": "string"
        },
        {
          "internalType": "bool",
          "name": "_test_env",
          "type": "bool"
        }
      ],
      "name": "mint",
      "outputs": [
        {
          "internalType": "uint256",
          "name": "",
          "type": "uint256"
        }
      ],
      "stateMutability": "payable",
      "type": "function"
    },
    {
      "inputs": [],
      "name": "name",
      "outputs": [
        {
          "internalType": "string",
          "name": "",
          "type": "string"
        }
      ],
      "stateMutability": "view",
      "type": "function"
    },
    {
      "inputs": [],
      "name": "owner",
      "outputs": [
        {
          "internalType": "address",
          "name": "",
          "type": "address"
        }
      ],
      "stateMutability": "view",
      "type": "function"
    },
    {
      "inputs": [
        {
          "internalType": "uint256",
          "name": "tokenId",
          "type": "uint256"
        }
      ],
      "name": "ownerOf",
      "outputs": [
        {
          "internalType": "address",
          "name": "",
          "type": "address"
        }
      ],
      "stateMutability": "view",
      "type": "function"
    },
    {
      "inputs": [],
      "name": "renounceOwnership",
      "outputs": [],
      "stateMutability": "nonpayable",
      "type": "function"
    },
    {
      "inputs": [
        {
          "internalType": "address",
          "name": "from",
          "type": "address"
        },
        {
          "internalType": "address",
          "name": "to",
          "type": "address"
        },
        {
          "internalType": "uint256",
          "name": "tokenId",
          "type": "uint256"
        }
      ],
      "name": "safeTransferFrom",
      "outputs": [],
      "stateMutability": "nonpayable",
      "type": "function"
    },
    {
      "inputs": [
        {
          "internalType": "address",
          "name": "from",
          "type": "address"
        },
        {
          "internalType": "address",
          "name": "to",
          "type": "address"
        },
        {
          "internalType": "uint256",
          "name": "tokenId",
          "type": "uint256"
        },
        {
          "internalType": "bytes",
          "name": "_data",
          "type": "bytes"
        }
      ],
      "name": "safeTransferFrom",
      "outputs": [],
      "stateMutability": "nonpayable",
      "type": "function"
    },
    {
      "inputs": [
        {
          "internalType": "address",
          "name": "operator",
          "type": "address"
        },
        {
          "internalType": "bool",
          "name": "approved",
          "type": "bool"
        }
      ],
      "name": "setApprovalForAll",
      "outputs": [],
      "stateMutability": "nonpayable",
      "type": "function"
    },
    {
      "inputs": [
        {
          "internalType": "uint256",
          "name": "_fee",
          "type": "uint256"
        }
      ],
      "name": "setMintingFee",
      "outputs": [],
      "stateMutability": "nonpayable",
      "type": "function"
    },
    {
      "inputs": [
        {
          "internalType": "address",
          "name": "_priceFeedAddress",
          "type": "address"
        }
      ],
      "name": "setPriceFeedContractAddress",
      "outputs": [],
      "stateMutability": "nonpayable",
      "type": "function"
    },
    {
      "inputs": [
        {
          "internalType": "bytes4",
          "name": "interfaceId",
          "type": "bytes4"
        }
      ],
      "name": "supportsInterface",
      "outputs": [
        {
          "internalType": "bool",
          "name": "",
          "type": "bool"
        }
      ],
      "stateMutability": "view",
      "type": "function"
    },
    {
      "inputs": [],
      "name": "symbol",
      "outputs": [
        {
          "internalType": "string",
          "name": "",
          "type": "string"
        }
      ],
      "stateMutability": "view",
      "type": "function"
    },
    {
      "inputs": [
        {
          "internalType": "uint256",
          "name": "tokenId",
          "type": "uint256"
        }
      ],
      "name": "tokenURI",
      "outputs": [
        {
          "internalType": "string",
          "name": "",
          "type": "string"
        }
      ],
      "stateMutability": "view",
      "type": "function"
    },
    {
      "inputs": [
        {
          "internalType": "address",
          "name": "from",
          "type": "address"
        },
        {
          "internalType": "address",
          "name": "to",
          "type": "address"
        },
        {
          "internalType": "uint256",
          "name": "tokenId",
          "type": "uint256"
        }
      ],
      "name": "transferFrom",
      "outputs": [],
      "stateMutability": "nonpayable",
      "type": "function"
    },
    {
      "inputs": [
        {
          "internalType": "address",
          "name": "newOwner",
          "type": "address"
        }
      ],
      "name": "transferOwnership",
      "outputs": [],
      "stateMutability": "nonpayable",
      "type": "function"
    }
  ],
  "bytecode": "0x608060405234801561001057600080fd5b50614422806100206000396000f3fe6080604052600436106101c25760003560e01c80637398f0fa116100f7578063a22cb46511610095578063c4df64ee11610064578063c4df64ee14610635578063c87b56dd14610672578063e985e9c5146106af578063f2fde38b146106ec576101c2565b8063a22cb46514610588578063b59d88a9146105b1578063b88d4fde146105dc578063c1d885b114610605576101c2565b80638da5cb5b116100d15780638da5cb5b146104dc5780638e15f473146105075780638ec862311461053257806395d89b411461055d576101c2565b80637398f0fa1461045f5780638028d5a9146104885780638129fc1c146104c5576101c2565b806323b872dd1161016457806347294d2b1161013e57806347294d2b146103915780636352211e146103ce57806370a082311461040b578063715018a614610448576101c2565b806323b872dd1461031457806330347ebf1461033d57806342842e0e14610368576101c2565b8063095ea7b3116101a0578063095ea7b31461026c5780630c4f65bd1461029557806312065fe0146102c0578063238a4709146102eb576101c2565b806301ffc9a7146101c757806306fdde0314610204578063081812fc1461022f575b600080fd5b3480156101d357600080fd5b506101ee60048036038101906101e99190612e99565b610715565b6040516101fb9190613589565b60405180910390f35b34801561021057600080fd5b506102196107f7565b60405161022691906135a4565b60405180910390f35b34801561023b57600080fd5b5061025660048036038101906102519190612fab565b610889565b6040516102639190613522565b60405180910390f35b34801561027857600080fd5b50610293600480360381019061028e9190612e34565b61090e565b005b3480156102a157600080fd5b506102aa610a26565b6040516102b79190613522565b60405180910390f35b3480156102cc57600080fd5b506102d5610a50565b6040516102e291906138c8565b60405180910390f35b3480156102f757600080fd5b50610312600480360381019061030d9190612fab565b610a58565b005b34801561032057600080fd5b5061033b60048036038101906103369190612d2e565b610ade565b005b34801561034957600080fd5b50610352610b3e565b60405161035f9190613522565b60405180910390f35b34801561037457600080fd5b5061038f600480360381019061038a9190612d2e565b610b69565b005b34801561039d57600080fd5b506103b860048036038101906103b39190612eeb565b610b89565b6040516103c591906138a6565b60405180910390f35b3480156103da57600080fd5b506103f560048036038101906103f09190612fab565b610cb4565b6040516104029190613522565b60405180910390f35b34801561041757600080fd5b50610432600480360381019061042d9190612cc9565b610d66565b60405161043f91906138c8565b60405180910390f35b34801561045457600080fd5b5061045d610e1e565b005b34801561046b57600080fd5b5061048660048036038101906104819190612cc9565b610ea6565b005b34801561049457600080fd5b506104af60048036038101906104aa9190612eeb565b610f67565b6040516104bc9190613589565b60405180910390f35b3480156104d157600080fd5b506104da610f9d565b005b3480156104e857600080fd5b506104f16111e8565b6040516104fe9190613522565b60405180910390f35b34801561051357600080fd5b5061051c611212565b60405161052991906138c8565b60405180910390f35b34801561053e57600080fd5b50610547611309565b60405161055491906138c8565b60405180910390f35b34801561056957600080fd5b50610572611400565b60405161057f91906135a4565b60405180910390f35b34801561059457600080fd5b506105af60048036038101906105aa9190612df8565b611492565b005b3480156105bd57600080fd5b506105c66114a8565b6040516105d391906138c8565b60405180910390f35b3480156105e857600080fd5b5061060360048036038101906105fe9190612d7d565b6114b2565b005b61061f600480360381019061061a9190612f2c565b611514565b60405161062c91906138c8565b60405180910390f35b34801561064157600080fd5b5061065c60048036038101906106579190612e70565b61176c565b60405161066991906138c8565b60405180910390f35b34801561067e57600080fd5b5061069960048036038101906106949190612fab565b6117b8565b6040516106a691906135a4565b60405180910390f35b3480156106bb57600080fd5b506106d660048036038101906106d19190612cf2565b61190a565b6040516106e39190613589565b60405180910390f35b3480156106f857600080fd5b50610713600480360381019061070e9190612cc9565b61199e565b005b60007f80ac58cd000000000000000000000000000000000000000000000000000000007bffffffffffffffffffffffffffffffffffffffffffffffffffffffff1916827bffffffffffffffffffffffffffffffffffffffffffffffffffffffff191614806107e057507f5b5e139f000000000000000000000000000000000000000000000000000000007bffffffffffffffffffffffffffffffffffffffffffffffffffffffff1916827bffffffffffffffffffffffffffffffffffffffffffffffffffffffff1916145b806107f057506107ef82611a96565b5b9050919050565b60606065805461080690613ba9565b80601f016020809104026020016040519081016040528092919081815260200182805461083290613ba9565b801561087f5780601f106108545761010080835404028352916020019161087f565b820191906000526020600020905b81548152906001019060200180831161086257829003601f168201915b5050505050905090565b600061089482611b00565b6108d3576040517f08c379a00000000000000000000000000000000000000000000000000000000081526004016108ca90613786565b60405180910390fd5b6069600083815260200190815260200160002060009054906101000a900473ffffffffffffffffffffffffffffffffffffffff169050919050565b600061091982610cb4565b90508073ffffffffffffffffffffffffffffffffffffffff168373ffffffffffffffffffffffffffffffffffffffff16141561098a576040517f08c379a0000000000000000000000000000000000000000000000000000000008152600401610981906137e6565b60405180910390fd5b8073ffffffffffffffffffffffffffffffffffffffff166109a9611b6c565b73ffffffffffffffffffffffffffffffffffffffff1614806109d857506109d7816109d2611b6c565b61190a565b5b610a17576040517f08c379a0000000000000000000000000000000000000000000000000000000008152600401610a0e906136a6565b60405180910390fd5b610a218383611b74565b505050565b600060fc60009054906101000a900473ffffffffffffffffffffffffffffffffffffffff16905090565b600047905090565b610a60611b6c565b73ffffffffffffffffffffffffffffffffffffffff16610a7e6111e8565b73ffffffffffffffffffffffffffffffffffffffff1614610ad4576040517f08c379a0000000000000000000000000000000000000000000000000000000008152600401610acb906137a6565b60405180910390fd5b8060fd8190555050565b610aef610ae9611b6c565b82611c2d565b610b2e576040517f08c379a0000000000000000000000000000000000000000000000000000000008152600401610b2590613826565b60405180910390fd5b610b39838383611d0b565b505050565b600061010060009054906101000a900473ffffffffffffffffffffffffffffffffffffffff16905090565b610b84838383604051806020016040528060008152506114b2565b505050565b610b91612a77565b61010282604051610ba291906134e7565b90815260200160405180910390206040518060600160405290816000820160009054906101000a900473ffffffffffffffffffffffffffffffffffffffff1673ffffffffffffffffffffffffffffffffffffffff1673ffffffffffffffffffffffffffffffffffffffff16815260200160018201548152602001600282018054610c2b90613ba9565b80601f0160208091040260200160405190810160405280929190818152602001828054610c5790613ba9565b8015610ca45780601f10610c7957610100808354040283529160200191610ca4565b820191906000526020600020905b815481529060010190602001808311610c8757829003601f168201915b5050505050815250509050919050565b6000806067600084815260200190815260200160002060009054906101000a900473ffffffffffffffffffffffffffffffffffffffff169050600073ffffffffffffffffffffffffffffffffffffffff168173ffffffffffffffffffffffffffffffffffffffff161415610d5d576040517f08c379a0000000000000000000000000000000000000000000000000000000008152600401610d54906136e6565b60405180910390fd5b80915050919050565b60008073ffffffffffffffffffffffffffffffffffffffff168273ffffffffffffffffffffffffffffffffffffffff161415610dd7576040517f08c379a0000000000000000000000000000000000000000000000000000000008152600401610dce906136c6565b60405180910390fd5b606860008373ffffffffffffffffffffffffffffffffffffffff1673ffffffffffffffffffffffffffffffffffffffff168152602001908152602001600020549050919050565b610e26611b6c565b73ffffffffffffffffffffffffffffffffffffffff16610e446111e8565b73ffffffffffffffffffffffffffffffffffffffff1614610e9a576040517f08c379a0000000000000000000000000000000000000000000000000000000008152600401610e91906137a6565b60405180910390fd5b610ea46000611f72565b565b610eae611b6c565b73ffffffffffffffffffffffffffffffffffffffff16610ecc6111e8565b73ffffffffffffffffffffffffffffffffffffffff1614610f22576040517f08c379a0000000000000000000000000000000000000000000000000000000008152600401610f19906137a6565b60405180910390fd5b8061010060006101000a81548173ffffffffffffffffffffffffffffffffffffffff021916908373ffffffffffffffffffffffffffffffffffffffff16021790555050565b600061010182604051610f7a91906134e7565b908152602001604051809103902060009054906101000a900460ff169050919050565b600060019054906101000a900460ff16610fc55760008054906101000a900460ff1615610fce565b610fcd612038565b5b61100d576040517f08c379a000000000000000000000000000000000000000000000000000000000815260040161100490613726565b60405180910390fd5b60008060019054906101000a900460ff16159050801561105d576001600060016101000a81548160ff02191690831515021790555060016000806101000a81548160ff0219169083151502179055505b6110d16040518060400160405280601381526020017f416c657861344d7573696369616e735f373231000000000000000000000000008152506040518060400160405280600781526020017f41344d5f37323100000000000000000000000000000000000000000000000000815250612049565b73ab594600376ec9fd91f8e885dadf0ce036862de060fe60006101000a81548173ffffffffffffffffffffffffffffffffffffffff021916908373ffffffffffffffffffffffffffffffffffffffff16021790555073d0d5e3db44de05e9f294bb0a3beeaf030de24ada60ff60006101000a81548173ffffffffffffffffffffffffffffffffffffffff021916908373ffffffffffffffffffffffffffffffffffffffff1602179055503360fc60006101000a81548173ffffffffffffffffffffffffffffffffffffffff021916908373ffffffffffffffffffffffffffffffffffffffff1602179055506111c46120a6565b80156111e55760008060016101000a81548160ff0219169083151502179055505b50565b600060c960009054906101000a900473ffffffffffffffffffffffffffffffffffffffff16905090565b600080600060fe60009054906101000a900473ffffffffffffffffffffffffffffffffffffffff1673ffffffffffffffffffffffffffffffffffffffff1663feaf968c6040518163ffffffff1660e01b815260040160a06040518083038186803b15801561127f57600080fd5b505afa158015611293573d6000803e3d6000fd5b505050506040513d601f19601f820116820180604052508101906112b79190612fd4565b5093505092505060008111611301576040517f08c379a00000000000000000000000000000000000000000000000000000000081526004016112f890613806565b60405180910390fd5b819250505090565b600080600060ff60009054906101000a900473ffffffffffffffffffffffffffffffffffffffff1673ffffffffffffffffffffffffffffffffffffffff1663feaf968c6040518163ffffffff1660e01b815260040160a06040518083038186803b15801561137657600080fd5b505afa15801561138a573d6000803e3d6000fd5b505050506040513d601f19601f820116820180604052508101906113ae9190612fd4565b50935050925050600081116113f8576040517f08c379a00000000000000000000000000000000000000000000000000000000081526004016113ef90613806565b60405180910390fd5b819250505090565b60606066805461140f90613ba9565b80601f016020809104026020016040519081016040528092919081815260200182805461143b90613ba9565b80156114885780601f1061145d57610100808354040283529160200191611488565b820191906000526020600020905b81548152906001019060200180831161146b57829003601f168201915b5050505050905090565b6114a461149d611b6c565b83836120ff565b5050565b600060fd54905090565b6114c36114bd611b6c565b83611c2d565b611502576040517f08c379a00000000000000000000000000000000000000000000000000000000081526004016114f990613826565b60405180910390fd5b61150e8484848461226c565b50505050565b6000806115208361176c565b90506101018460405161153391906134e7565b908152602001604051809103902060009054906101000a900460ff161561158f576040517f08c379a000000000000000000000000000000000000000000000000000000000815260040161158690613886565b60405180910390fd5b803410156115d2576040517f08c379a00000000000000000000000000000000000000000000000000000000081526004016115c990613846565b60405180910390fd5b60fc60009054906101000a900473ffffffffffffffffffffffffffffffffffffffff1673ffffffffffffffffffffffffffffffffffffffff166108fc829081150290604051600060405180830381858888f1935050505015801561163a573d6000803e3d6000fd5b5061164560fb6122c8565b600061165160fb6122de565b905061165d33826122ec565b61166781876124c6565b60016101018660405161167a91906134e7565b908152602001604051809103902060006101000a81548160ff02191690831515021790555060405180606001604052803373ffffffffffffffffffffffffffffffffffffffff16815260200182815260200186815250610102866040516116e191906134e7565b908152602001604051809103902060008201518160000160006101000a81548173ffffffffffffffffffffffffffffffffffffffff021916908373ffffffffffffffffffffffffffffffffffffffff16021790555060208201518160010155604082015181600201908051906020019061175c929190612aae565b5090505080925050509392505050565b6000806117788361253a565b90506000662386f26fc10000826402540be40060fd546117989190613a45565b6117a29190613a14565b6117ac9190613a45565b90508092505050919050565b60606117c382611b00565b611802576040517f08c379a00000000000000000000000000000000000000000000000000000000081526004016117f990613766565b60405180910390fd5b600060976000848152602001908152602001600020805461182290613ba9565b80601f016020809104026020016040519081016040528092919081815260200182805461184e90613ba9565b801561189b5780601f106118705761010080835404028352916020019161189b565b820191906000526020600020905b81548152906001019060200180831161187e57829003601f168201915b5050505050905060006118ac612566565b90506000815114156118c2578192505050611905565b6000825111156118f75780826040516020016118df9291906134fe565b60405160208183030381529060405292505050611905565b6119008461257d565b925050505b919050565b6000606a60008473ffffffffffffffffffffffffffffffffffffffff1673ffffffffffffffffffffffffffffffffffffffff16815260200190815260200160002060008373ffffffffffffffffffffffffffffffffffffffff1673ffffffffffffffffffffffffffffffffffffffff16815260200190815260200160002060009054906101000a900460ff16905092915050565b6119a6611b6c565b73ffffffffffffffffffffffffffffffffffffffff166119c46111e8565b73ffffffffffffffffffffffffffffffffffffffff1614611a1a576040517f08c379a0000000000000000000000000000000000000000000000000000000008152600401611a11906137a6565b60405180910390fd5b600073ffffffffffffffffffffffffffffffffffffffff168173ffffffffffffffffffffffffffffffffffffffff161415611a8a576040517f08c379a0000000000000000000000000000000000000000000000000000000008152600401611a81906135e6565b60405180910390fd5b611a9381611f72565b50565b60007f01ffc9a7000000000000000000000000000000000000000000000000000000007bffffffffffffffffffffffffffffffffffffffffffffffffffffffff1916827bffffffffffffffffffffffffffffffffffffffffffffffffffffffff1916149050919050565b60008073ffffffffffffffffffffffffffffffffffffffff166067600084815260200190815260200160002060009054906101000a900473ffffffffffffffffffffffffffffffffffffffff1673ffffffffffffffffffffffffffffffffffffffff1614159050919050565b600033905090565b816069600083815260200190815260200160002060006101000a81548173ffffffffffffffffffffffffffffffffffffffff021916908373ffffffffffffffffffffffffffffffffffffffff160217905550808273ffffffffffffffffffffffffffffffffffffffff16611be783610cb4565b73ffffffffffffffffffffffffffffffffffffffff167f8c5be1e5ebec7d5bd14f71427d1e84f3dd0314c0f7b2291e5b200ac8c7c3b92560405160405180910390a45050565b6000611c3882611b00565b611c77576040517f08c379a0000000000000000000000000000000000000000000000000000000008152600401611c6e90613686565b60405180910390fd5b6000611c8283610cb4565b90508073ffffffffffffffffffffffffffffffffffffffff168473ffffffffffffffffffffffffffffffffffffffff161480611cf157508373ffffffffffffffffffffffffffffffffffffffff16611cd984610889565b73ffffffffffffffffffffffffffffffffffffffff16145b80611d025750611d01818561190a565b5b91505092915050565b8273ffffffffffffffffffffffffffffffffffffffff16611d2b82610cb4565b73ffffffffffffffffffffffffffffffffffffffff1614611d81576040517f08c379a0000000000000000000000000000000000000000000000000000000008152600401611d7890613606565b60405180910390fd5b600073ffffffffffffffffffffffffffffffffffffffff168273ffffffffffffffffffffffffffffffffffffffff161415611df1576040517f08c379a0000000000000000000000000000000000000000000000000000000008152600401611de890613646565b60405180910390fd5b611dfc838383612624565b611e07600082611b74565b6001606860008573ffffffffffffffffffffffffffffffffffffffff1673ffffffffffffffffffffffffffffffffffffffff1681526020019081526020016000206000828254611e579190613a9f565b925050819055506001606860008473ffffffffffffffffffffffffffffffffffffffff1673ffffffffffffffffffffffffffffffffffffffff1681526020019081526020016000206000828254611eae91906139be565b92505081905550816067600083815260200190815260200160002060006101000a81548173ffffffffffffffffffffffffffffffffffffffff021916908373ffffffffffffffffffffffffffffffffffffffff160217905550808273ffffffffffffffffffffffffffffffffffffffff168473ffffffffffffffffffffffffffffffffffffffff167fddf252ad1be2c89b69c2b068fc378daa952ba7f163c4a11628f55a4df523b3ef60405160405180910390a4611f6d838383612629565b505050565b600060c960009054906101000a900473ffffffffffffffffffffffffffffffffffffffff1690508160c960006101000a81548173ffffffffffffffffffffffffffffffffffffffff021916908373ffffffffffffffffffffffffffffffffffffffff1602179055508173ffffffffffffffffffffffffffffffffffffffff168173ffffffffffffffffffffffffffffffffffffffff167f8be0079c531659141344cd1fd0a4f28419497f9722a3daafe3b4186f6b6457e060405160405180910390a35050565b60006120433061262e565b15905090565b600060019054906101000a900460ff16612098576040517f08c379a000000000000000000000000000000000000000000000000000000000815260040161208f90613866565b60405180910390fd5b6120a28282612651565b5050565b600060019054906101000a900460ff166120f5576040517f08c379a00000000000000000000000000000000000000000000000000000000081526004016120ec90613866565b60405180910390fd5b6120fd6126d2565b565b8173ffffffffffffffffffffffffffffffffffffffff168373ffffffffffffffffffffffffffffffffffffffff16141561216e576040517f08c379a000000000000000000000000000000000000000000000000000000000815260040161216590613666565b60405180910390fd5b80606a60008573ffffffffffffffffffffffffffffffffffffffff1673ffffffffffffffffffffffffffffffffffffffff16815260200190815260200160002060008473ffffffffffffffffffffffffffffffffffffffff1673ffffffffffffffffffffffffffffffffffffffff16815260200190815260200160002060006101000a81548160ff0219169083151502179055508173ffffffffffffffffffffffffffffffffffffffff168373ffffffffffffffffffffffffffffffffffffffff167f17307eab39ab6107e8899845ad3d59bd9653f200f220920489ca2b5937696c318360405161225f9190613589565b60405180910390a3505050565b612277848484611d0b565b61228384848484612733565b6122c2576040517f08c379a00000000000000000000000000000000000000000000000000000000081526004016122b9906135c6565b60405180910390fd5b50505050565b6001816000016000828254019250508190555050565b600081600001549050919050565b600073ffffffffffffffffffffffffffffffffffffffff168273ffffffffffffffffffffffffffffffffffffffff16141561235c576040517f08c379a000000000000000000000000000000000000000000000000000000000815260040161235390613746565b60405180910390fd5b61236581611b00565b156123a5576040517f08c379a000000000000000000000000000000000000000000000000000000000815260040161239c90613626565b60405180910390fd5b6123b160008383612624565b6001606860008473ffffffffffffffffffffffffffffffffffffffff1673ffffffffffffffffffffffffffffffffffffffff168152602001908152602001600020600082825461240191906139be565b92505081905550816067600083815260200190815260200160002060006101000a81548173ffffffffffffffffffffffffffffffffffffffff021916908373ffffffffffffffffffffffffffffffffffffffff160217905550808273ffffffffffffffffffffffffffffffffffffffff16600073ffffffffffffffffffffffffffffffffffffffff167fddf252ad1be2c89b69c2b068fc378daa952ba7f163c4a11628f55a4df523b3ef60405160405180910390a46124c260008383612629565b5050565b6124cf82611b00565b61250e576040517f08c379a000000000000000000000000000000000000000000000000000000000815260040161250590613706565b60405180910390fd5b80609760008481526020019081526020016000209080519060200190612535929190612aae565b505050565b60008082156125525761254b611309565b905061255d565b61255a611212565b90505b80915050919050565b606060405180602001604052806000815250905090565b606061258882611b00565b6125c7576040517f08c379a00000000000000000000000000000000000000000000000000000000081526004016125be906137c6565b60405180910390fd5b60006125d1612566565b905060008151116125f1576040518060200160405280600081525061261c565b806125fb846128ca565b60405160200161260c9291906134fe565b6040516020818303038152906040525b915050919050565b505050565b505050565b6000808273ffffffffffffffffffffffffffffffffffffffff163b119050919050565b600060019054906101000a900460ff166126a0576040517f08c379a000000000000000000000000000000000000000000000000000000000815260040161269790613866565b60405180910390fd5b81606590805190602001906126b6929190612aae565b5080606690805190602001906126cd929190612aae565b505050565b600060019054906101000a900460ff16612721576040517f08c379a000000000000000000000000000000000000000000000000000000000815260040161271890613866565b60405180910390fd5b61273161272c611b6c565b611f72565b565b60006127548473ffffffffffffffffffffffffffffffffffffffff1661262e565b156128bd578373ffffffffffffffffffffffffffffffffffffffff1663150b7a0261277d611b6c565b8786866040518563ffffffff1660e01b815260040161279f949392919061353d565b602060405180830381600087803b1580156127b957600080fd5b505af19250505080156127ea57506040513d601f19601f820116820180604052508101906127e79190612ec2565b60015b61286d573d806000811461281a576040519150601f19603f3d011682016040523d82523d6000602084013e61281f565b606091505b50600081511415612865576040517f08c379a000000000000000000000000000000000000000000000000000000000815260040161285c906135c6565b60405180910390fd5b805181602001fd5b63150b7a0260e01b7bffffffffffffffffffffffffffffffffffffffffffffffffffffffff1916817bffffffffffffffffffffffffffffffffffffffffffffffffffffffff1916149150506128c2565b600190505b949350505050565b60606000821415612912576040518060400160405280600181526020017f30000000000000000000000000000000000000000000000000000000000000008152509050612a72565b600082905060005b6000821461294457808061292d90613c0c565b915050600a8261293d9190613a14565b915061291a565b60008167ffffffffffffffff811115612986577f4e487b7100000000000000000000000000000000000000000000000000000000600052604160045260246000fd5b6040519080825280601f01601f1916602001820160405280156129b85781602001600182028036833780820191505090505b5090505b60008514612a6b576001826129d19190613a9f565b9150600a856129e09190613c55565b60306129ec91906139be565b60f81b818381518110612a28577f4e487b7100000000000000000000000000000000000000000000000000000000600052603260045260246000fd5b60200101907effffffffffffffffffffffffffffffffffffffffffffffffffffffffffffff1916908160001a905350600a85612a649190613a14565b94506129bc565b8093505050505b919050565b6040518060600160405280600073ffffffffffffffffffffffffffffffffffffffff16815260200160008152602001606081525090565b828054612aba90613ba9565b90600052602060002090601f016020900481019282612adc5760008555612b23565b82601f10612af557805160ff1916838001178555612b23565b82800160010185558215612b23579182015b82811115612b22578251825591602001919060010190612b07565b5b509050612b309190612b34565b5090565b5b80821115612b4d576000816000905550600101612b35565b5090565b6000612b64612b5f84613908565b6138e3565b905082815260208101848484011115612b7c57600080fd5b612b87848285613b67565b509392505050565b6000612ba2612b9d84613939565b6138e3565b905082815260208101848484011115612bba57600080fd5b612bc5848285613b67565b509392505050565b600081359050612bdc81614362565b92915050565b600081359050612bf181614379565b92915050565b600081359050612c0681614390565b92915050565b600081519050612c1b81614390565b92915050565b600082601f830112612c3257600080fd5b8135612c42848260208601612b51565b91505092915050565b600081519050612c5a816143a7565b92915050565b600082601f830112612c7157600080fd5b8135612c81848260208601612b8f565b91505092915050565b600081359050612c99816143be565b92915050565b600081519050612cae816143be565b92915050565b600081519050612cc3816143d5565b92915050565b600060208284031215612cdb57600080fd5b6000612ce984828501612bcd565b91505092915050565b60008060408385031215612d0557600080fd5b6000612d1385828601612bcd565b9250506020612d2485828601612bcd565b9150509250929050565b600080600060608486031215612d4357600080fd5b6000612d5186828701612bcd565b9350506020612d6286828701612bcd565b9250506040612d7386828701612c8a565b9150509250925092565b60008060008060808587031215612d9357600080fd5b6000612da187828801612bcd565b9450506020612db287828801612bcd565b9350506040612dc387828801612c8a565b925050606085013567ffffffffffffffff811115612de057600080fd5b612dec87828801612c21565b91505092959194509250565b60008060408385031215612e0b57600080fd5b6000612e1985828601612bcd565b9250506020612e2a85828601612be2565b9150509250929050565b60008060408385031215612e4757600080fd5b6000612e5585828601612bcd565b9250506020612e6685828601612c8a565b9150509250929050565b600060208284031215612e8257600080fd5b6000612e9084828501612be2565b91505092915050565b600060208284031215612eab57600080fd5b6000612eb984828501612bf7565b91505092915050565b600060208284031215612ed457600080fd5b6000612ee284828501612c0c565b91505092915050565b600060208284031215612efd57600080fd5b600082013567ffffffffffffffff811115612f1757600080fd5b612f2384828501612c60565b91505092915050565b600080600060608486031215612f4157600080fd5b600084013567ffffffffffffffff811115612f5b57600080fd5b612f6786828701612c60565b935050602084013567ffffffffffffffff811115612f8457600080fd5b612f9086828701612c60565b9250506040612fa186828701612be2565b9150509250925092565b600060208284031215612fbd57600080fd5b6000612fcb84828501612c8a565b91505092915050565b600080600080600060a08688031215612fec57600080fd5b6000612ffa88828901612cb4565b955050602061300b88828901612c4b565b945050604061301c88828901612c9f565b935050606061302d88828901612c9f565b925050608061303e88828901612cb4565b9150509295509295909350565b61305481613ad3565b82525050565b61306381613ad3565b82525050565b61307281613ae5565b82525050565b60006130838261396a565b61308d8185613980565b935061309d818560208601613b76565b6130a681613d42565b840191505092915050565b60006130bc82613975565b6130c68185613991565b93506130d6818560208601613b76565b6130df81613d42565b840191505092915050565b60006130f582613975565b6130ff81856139a2565b935061310f818560208601613b76565b61311881613d42565b840191505092915050565b600061312e82613975565b61313881856139b3565b9350613148818560208601613b76565b80840191505092915050565b60006131616032836139a2565b915061316c82613d53565b604082019050919050565b60006131846026836139a2565b915061318f82613da2565b604082019050919050565b60006131a76025836139a2565b91506131b282613df1565b604082019050919050565b60006131ca601c836139a2565b91506131d582613e40565b602082019050919050565b60006131ed6024836139a2565b91506131f882613e69565b604082019050919050565b60006132106019836139a2565b915061321b82613eb8565b602082019050919050565b6000613233602c836139a2565b915061323e82613ee1565b604082019050919050565b60006132566038836139a2565b915061326182613f30565b604082019050919050565b6000613279602a836139a2565b915061328482613f7f565b604082019050919050565b600061329c6029836139a2565b91506132a782613fce565b604082019050919050565b60006132bf602e836139a2565b91506132ca8261401d565b604082019050919050565b60006132e2602e836139a2565b91506132ed8261406c565b604082019050919050565b60006133056020836139a2565b9150613310826140bb565b602082019050919050565b60006133286031836139a2565b9150613333826140e4565b604082019050919050565b600061334b602c836139a2565b915061335682614133565b604082019050919050565b600061336e6020836139a2565b915061337982614182565b602082019050919050565b6000613391602f836139a2565b915061339c826141ab565b604082019050919050565b60006133b46021836139a2565b91506133bf826141fa565b604082019050919050565b60006133d76012836139a2565b91506133e282614249565b602082019050919050565b60006133fa6031836139a2565b915061340582614272565b604082019050919050565b600061341d601f836139a2565b9150613428826142c1565b602082019050919050565b6000613440602b836139a2565b915061344b826142ea565b604082019050919050565b60006134636018836139a2565b915061346e82614339565b602082019050919050565b6000606083016000830151613491600086018261304b565b5060208301516134a460208601826134c9565b50604083015184820360408601526134bc82826130b1565b9150508091505092915050565b6134d281613b47565b82525050565b6134e181613b47565b82525050565b60006134f38284613123565b915081905092915050565b600061350a8285613123565b91506135168284613123565b91508190509392505050565b6000602082019050613537600083018461305a565b92915050565b6000608082019050613552600083018761305a565b61355f602083018661305a565b61356c60408301856134d8565b818103606083015261357e8184613078565b905095945050505050565b600060208201905061359e6000830184613069565b92915050565b600060208201905081810360008301526135be81846130ea565b905092915050565b600060208201905081810360008301526135df81613154565b9050919050565b600060208201905081810360008301526135ff81613177565b9050919050565b6000602082019050818103600083015261361f8161319a565b9050919050565b6000602082019050818103600083015261363f816131bd565b9050919050565b6000602082019050818103600083015261365f816131e0565b9050919050565b6000602082019050818103600083015261367f81613203565b9050919050565b6000602082019050818103600083015261369f81613226565b9050919050565b600060208201905081810360008301526136bf81613249565b9050919050565b600060208201905081810360008301526136df8161326c565b9050919050565b600060208201905081810360008301526136ff8161328f565b9050919050565b6000602082019050818103600083015261371f816132b2565b9050919050565b6000602082019050818103600083015261373f816132d5565b9050919050565b6000602082019050818103600083015261375f816132f8565b9050919050565b6000602082019050818103600083015261377f8161331b565b9050919050565b6000602082019050818103600083015261379f8161333e565b9050919050565b600060208201905081810360008301526137bf81613361565b9050919050565b600060208201905081810360008301526137df81613384565b9050919050565b600060208201905081810360008301526137ff816133a7565b9050919050565b6000602082019050818103600083015261381f816133ca565b9050919050565b6000602082019050818103600083015261383f816133ed565b9050919050565b6000602082019050818103600083015261385f81613410565b9050919050565b6000602082019050818103600083015261387f81613433565b9050919050565b6000602082019050818103600083015261389f81613456565b9050919050565b600060208201905081810360008301526138c08184613479565b905092915050565b60006020820190506138dd60008301846134d8565b92915050565b60006138ed6138fe565b90506138f98282613bdb565b919050565b6000604051905090565b600067ffffffffffffffff82111561392357613922613d13565b5b61392c82613d42565b9050602081019050919050565b600067ffffffffffffffff82111561395457613953613d13565b5b61395d82613d42565b9050602081019050919050565b600081519050919050565b600081519050919050565b600082825260208201905092915050565b600082825260208201905092915050565b600082825260208201905092915050565b600081905092915050565b60006139c982613b47565b91506139d483613b47565b9250827fffffffffffffffffffffffffffffffffffffffffffffffffffffffffffffffff03821115613a0957613a08613c86565b5b828201905092915050565b6000613a1f82613b47565b9150613a2a83613b47565b925082613a3a57613a39613cb5565b5b828204905092915050565b6000613a5082613b47565b9150613a5b83613b47565b9250817fffffffffffffffffffffffffffffffffffffffffffffffffffffffffffffffff0483118215151615613a9457613a93613c86565b5b828202905092915050565b6000613aaa82613b47565b9150613ab583613b47565b925082821015613ac857613ac7613c86565b5b828203905092915050565b6000613ade82613b27565b9050919050565b60008115159050919050565b60007fffffffff0000000000000000000000000000000000000000000000000000000082169050919050565b6000819050919050565b600073ffffffffffffffffffffffffffffffffffffffff82169050919050565b6000819050919050565b600069ffffffffffffffffffff82169050919050565b82818337600083830152505050565b60005b83811015613b94578082015181840152602081019050613b79565b83811115613ba3576000848401525b50505050565b60006002820490506001821680613bc157607f821691505b60208210811415613bd557613bd4613ce4565b5b50919050565b613be482613d42565b810181811067ffffffffffffffff82111715613c0357613c02613d13565b5b80604052505050565b6000613c1782613b47565b91507fffffffffffffffffffffffffffffffffffffffffffffffffffffffffffffffff821415613c4a57613c49613c86565b5b600182019050919050565b6000613c6082613b47565b9150613c6b83613b47565b925082613c7b57613c7a613cb5565b5b828206905092915050565b7f4e487b7100000000000000000000000000000000000000000000000000000000600052601160045260246000fd5b7f4e487b7100000000000000000000000000000000000000000000000000000000600052601260045260246000fd5b7f4e487b7100000000000000000000000000000000000000000000000000000000600052602260045260246000fd5b7f4e487b7100000000000000000000000000000000000000000000000000000000600052604160045260246000fd5b6000601f19601f8301169050919050565b7f4552433732313a207472616e7366657220746f206e6f6e20455243373231526560008201527f63656976657220696d706c656d656e7465720000000000000000000000000000602082015250565b7f4f776e61626c653a206e6577206f776e657220697320746865207a65726f206160008201527f6464726573730000000000000000000000000000000000000000000000000000602082015250565b7f4552433732313a207472616e736665722066726f6d20696e636f72726563742060008201527f6f776e6572000000000000000000000000000000000000000000000000000000602082015250565b7f4552433732313a20746f6b656e20616c7265616479206d696e74656400000000600082015250565b7f4552433732313a207472616e7366657220746f20746865207a65726f2061646460008201527f7265737300000000000000000000000000000000000000000000000000000000602082015250565b7f4552433732313a20617070726f766520746f2063616c6c657200000000000000600082015250565b7f4552433732313a206f70657261746f7220717565727920666f72206e6f6e657860008201527f697374656e7420746f6b656e0000000000000000000000000000000000000000602082015250565b7f4552433732313a20617070726f76652063616c6c6572206973206e6f74206f7760008201527f6e6572206e6f7220617070726f76656420666f7220616c6c0000000000000000602082015250565b7f4552433732313a2062616c616e636520717565727920666f7220746865207a6560008201527f726f206164647265737300000000000000000000000000000000000000000000602082015250565b7f4552433732313a206f776e657220717565727920666f72206e6f6e657869737460008201527f656e7420746f6b656e0000000000000000000000000000000000000000000000602082015250565b7f45524337323155524953746f726167653a2055524920736574206f66206e6f6e60008201527f6578697374656e7420746f6b656e000000000000000000000000000000000000602082015250565b7f496e697469616c697a61626c653a20636f6e747261637420697320616c72656160008201527f647920696e697469616c697a6564000000000000000000000000000000000000602082015250565b7f4552433732313a206d696e7420746f20746865207a65726f2061646472657373600082015250565b7f45524337323155524953746f726167653a2055524920717565727920666f722060008201527f6e6f6e6578697374656e7420746f6b656e000000000000000000000000000000602082015250565b7f4552433732313a20617070726f76656420717565727920666f72206e6f6e657860008201527f697374656e7420746f6b656e0000000000000000000000000000000000000000602082015250565b7f4f776e61626c653a2063616c6c6572206973206e6f7420746865206f776e6572600082015250565b7f4552433732314d657461646174613a2055524920717565727920666f72206e6f60008201527f6e6578697374656e7420746f6b656e0000000000000000000000000000000000602082015250565b7f4552433732313a20617070726f76616c20746f2063757272656e74206f776e6560008201527f7200000000000000000000000000000000000000000000000000000000000000602082015250565b7f526f756e64206e6f7420636f6d706c6574650000000000000000000000000000600082015250565b7f4552433732313a207472616e736665722063616c6c6572206973206e6f74206f60008201527f776e6572206e6f7220617070726f766564000000000000000000000000000000602082015250565b7f466565206d757374206265206174206c65617374206d696e74696e6746656500600082015250565b7f496e697469616c697a61626c653a20636f6e7472616374206973206e6f74206960008201527f6e697469616c697a696e67000000000000000000000000000000000000000000602082015250565b7f536b696c6c20494420616c7265616479206d696e746564210000000000000000600082015250565b61436b81613ad3565b811461437657600080fd5b50565b61438281613ae5565b811461438d57600080fd5b50565b61439981613af1565b81146143a457600080fd5b50565b6143b081613b1d565b81146143bb57600080fd5b50565b6143c781613b47565b81146143d257600080fd5b50565b6143de81613b51565b81146143e957600080fd5b5056fea26469706673582212206555da51e1cdecc34d812026ed298a54b550ae7a8b1219a4b984f8ea5d1b3f1b64736f6c63430008040033",
  "linkReferences": {},
  "deployedLinkReferences": {}
}